:020000040800F2
:10000000000C002001010008530C0008E30B00085D
:10001000510C00082D020008E50D0008000000004A
:10002000000000000000000000000000550C000867
:100030002F0200080000000053010008570C0008C0
:100040001B0100081B0100081B0100081B01000820
:100050001B0100081B0100081B0100081B01000810
:100060001B0100081B0100081B0100081B01000800
:100070001B0100081B0100081B0100081B010008F0
:100080001B0100081B0100081B0100081B010008E0
:100090001B0100081B0100081B0100081B010008D0
:1000A0001B0100081B0100081B0100081B010008C0
:1000B0001B0100081B0100081B0100081B010008B0
:1000C0001B0100081B0100081B0100081B010008A0
:1000D0001B0100081B0100081B0100081B01000890
:1000E0001B0100081B0100081B010008DFF80CD0F1
:1000F00000F08AF8004800470D0F0008000C0020AF
:100100000648804706480047FEE7FEE7FEE7FEE7B1
:10011000FEE7FEE7FEE7FEE7FEE7FEE7C50C0008A8
:10012000ED000008EFF3108072B6704780F310887E
:100130007047254A1368012B04D04FF00103136068
:10014000224A1060224A116022484FF0805101601B
:100150007047EFF3108272B61B48016891B14FF0FF
:10016000000101601948016829B1EFF3098121E913
:10017000F00F00680160164909680968B1E8F00FDE
:1001800081F3098882F310884EF0040E70471049FD
:1001900008600E494FF0000008600B494FF0010065
:1001A00008600D480D49D0F8002041EA02010160C5
:1001B00008484FF08051016009480068006880F3EA
:1001C000088861B662B67047300000202800002021
:1001D0002C00002004ED00E020ED00E00000FFFF17
:1001E00008ED00E0D2B201E000F8012B491EFBD27D
:1001F00070470022F6E710B513460A460446194632
:10020000FFF7F0FF204610BD064C074D06E0E06802
:1002100040F0010394E8070098471034AC42F6D34D
:10022000FFF768FFC0120008E0120008FEE7704701
:100230002DE9F84FDFF8B891002409F1040A0AF11A
:10024000040B23460F270BF1040EC9E00125A5403E
:100250002A40AA427DD1674ED1F804C0ACEB060813
:10026000B44532D014DCBCF1030F3AD009DCBCF148
:10027000000F2AD0BCF1010F1CD0BCF1020F31D10C
:100280001DE0BCF1110F17D0BCF1120F2AD119E0FB
:10029000B8F5881F19D006DCB8F5803F15D0B8F541
:1002A000801F1FD111E0B8F5001F0ED0B8F5041F54
:1002B00018D10AE0CB6815E0CB681B1D12E0CB68B3
:1002C00008330FE0CB680C330CE08B682BB1012BAB
:1002D0004FF0080303D0456104E0042302E0056108
:1002E00000E00023FF2A01D8064601E000F10406E1
:1002F0004FEA840501D9A5F12005D6F8008007FA58
:1003000005FC28EA0C0803FA05F548EA0508C6F8D2
:1003100000804D68ED0062D5374DAE6946F00106AC
:10032000AE61AD6924F0030605F001050095334D7B
:1003300006EB050CDCF80850A607360F07FA06F89E
:1003400025EA0805DFF8B880404503D14FF00008E2
:1003500017E044E0DFF8AC80404502D14FF00108DF
:100360000FE0DFF8A480404502D14FF0020808E01A
:10037000DFF89880404502D14FF0030801E04FF0CC
:10038000040808FA06F848EA0508CCF808804D6821
:10039000D9F80060ED034D4601D5164300E09643C1
:1003A0002E604D68DAF80060AD03554601D516435E
:1003B00000E096432E604D68DBF80060ED025D467C
:1003C00001D5164300E096432E604D68DEF80060CC
:1003D000AD02754601D5164300E096432E60641CBD
:1003E0000D682A46E5407FF431AFBDE8F88F000084
:1003F0000004014000001110001002400000014004
:1004000000080140000C01400010014000140140B0
:100410000AB1016170470904FBE7000001488068E8
:1004200070470000000000200248816802781144F3
:100430008160704700000020074810B5016841F056
:1004400010010160032000F067F8002000F006F8BA
:1004500000F024F8002010BD0020024070B50D4DC2
:1004600004464FF47A712878B1FBF0F00A49096824
:10047000B1FBF0F000F0DEFA48B9102C07D20022F0
:100480002146501E00F028F800206C6070BD01204D
:1004900070BD0000000000200C0000200C4808B5D2
:1004A000816941F001018161816901F001010091DF
:1004B000C16941F08051C161C06900F08050009075
:1004C0000448416821F0E06141F08061416008BD6D
:1004D0000010024000000140F0B40E4B1B680C46B7
:1004E000C3F30223C3F10705042D00D90425191D08
:1004F000072901D2002300E0DB1E012606FA05F1E0
:10050000491E214099409E40761E16403143F0BC62
:1005100000F072BC0CED00E0064900F0070208682C
:100520004FF6FF03184040EA0220034A10430860D8
:10053000704700000CED00E00000FA052DE9F047DF
:100540000F46050061D0434E306800F00700B84206
:1005500009D2306820F0070038433060306800F07E
:100560000700B84251D128683B4C810712D540079B
:1005700003D5606840F4E06060602878000703D528
:10058000606840F4605060606068A96820F0F00026
:10059000084360602878C00728D06868012810D018
:1005A0002168022810D0890700292EDA616821F01D
:1005B000030101436160FFF731FF804641F2883952
:1005C0000DE021688903EFE78901EDE7FFF726FFDA
:1005D000A0EB0801494502D90320BDE8F087606817
:1005E000696800F00C00B0EB810FEFD1306800F0CB
:1005F0000700B8420BD9306820F00700384330605C
:10060000306800F00700B84201D00120E5E7287803
:10061000400705D56068E96820F4E0600843606041
:100620002878000706D56068296920F4605040EA00
:10063000C100606000F038F86168084AC1F3031136
:10064000515CC8400649086006480068FFF706FF8D
:100650000020C2E70020024000100240A81200085B
:100660000C00002004000020044805490068496887
:10067000044AC1F30221515CC84070470C000020BD
:1006800000100240B8120008044805490068496893
:10069000044AC1F3C221515CC84070470C000020DD
:1006A00000100240B812000812A185B00FC98DE8F1
:1006B0000F0014A0144A006804905168134801F018
:1006C0000C03042B10D0082B0ED1C1F38343C903B4
:1006D0001DF803000AD5516804AAC1F34041515CDA
:1006E0000A4A5043B0FBF1F005B07047084948434F
:1006F000FAE7000002030405060708090A0B0C0DBF
:100700000E0F1010010200000010024000127A00CB
:1007100000093D002DE9F84F040070D02078C04D4D
:10072000C00749D06868C0F38100012807D0686815
:10073000C0F38100022809D16868C00306D5286883
:10074000800339D560680028E7D035E06068B0F5EF
:10075000803F0BD010B1B0F5A02F11D0286820F445
:1007600080302860286820F4802002E0286840F467
:1007700080302860606890B1FFF750FE06460AE0BE
:10078000286840F480202860F0E700BFFFF746FEAD
:10079000801B642873D828688003F7D50CE0FFF726
:1007A0003DFE064605E000BFFFF738FE801B6428CB
:1007B000F0D828688003F7D420789A4E80074FF04D
:1007C00001094FF0000839D5686810F00C0F07D008
:1007D0006868C0F38100022809D16868C00306D4A4
:1007E0002868800714D52069012808D110E0206905
:1007F000B0B1C6F80090FFF711FE074605E00AE128
:10080000FFF70CFEC01B0228C4D828688007F7D564
:100810002868616920F0F80040EAC10028600DE016
:10082000C6F80080FFF7FAFD074604E0FFF7F6FD83
:10083000C01B022823D828688007F7D42078000737
:100840002CD57948A169D9B1C0F80090FFF7E6FD31
:10085000074604E0FFF7E2FDC01B02280FD8686AD4
:100860008007F7D571484FF4FA510068B0FBF1F0FA
:10087000009000BF0098411E0091FAD20EE080E087
:10088000C0F80080FFF7CAFD074604E0FFF7C6FD89
:10089000C01B022875D8686A8007F7D42078400703
:1008A00060D5E8690027C00008D4E86940F08050AE
:1008B000E861E869012700F0805000905C48016819
:1008C000C90513D40168834641F480710160FFF7C4
:1008D000A5FD824606E000BFFFF7A0FDA0EB0A00E1
:1008E00064284ED8DBF80000C005F5D5E068012883
:1008F0000AD008B1052813D0286A20F00100286228
:10090000286A20F0040002E0286A40F00100286212
:10091000E06841F2883B98B1FFF780FD82460BE02A
:10092000286A40F004002862EEE700BFFFF776FD7A
:10093000A0EB0A0159455AD8286A8007F6D50CE081
:10094000FFF76CFD824605E0FFF768FDA0EB0A01AA
:1009500059454CD8286A8007F6D41FB1E86920F0C1
:100960008050E861E06988B36968C1F381010229B8
:1009700044D00228C6F8608004D0FFF74FFD04463B
:1009800038E034E0FFF74AFD074604E0FFF746FD94
:10099000C01B02282BD828688001F7D4206AB0F544
:1009A000803F05D16868A16820F400300843686082
:1009B000D4E908010843696821F4741108436860A8
:1009C000C6F86090FFF72AFD044606E025E000BF68
:1009D000FFF724FD001B022809D828688001F7D5FD
:1009E0001BE000BFFFF71AFD001B022802D90320FD
:1009F000BDE8F88F28688001F4D40EE00128F7D014
:100A00006868226A00F48031914204D1616A00F47E
:100A10007010884201D00120EAE70020E8E70000DA
:100A20000010024000004242800442420C000020BC
:100A30000070004010B5401EB0F1807F01D301204E
:100A400010BD4FF0E02460610F21601700F0D4F971
:100A50000020A06107202061002010BD70B50400B7
:100A600004D094F83900002510B106E0012070BDD3
:100A700084F83850204600F023F8242084F8390008
:100A80002068C16821F40051C160204600F01CF9C3
:100A90002068016921F4904101612068416921F0D9
:100AA0002A0141612068C16841F40051C160E563D9
:100AB000202084F8390084F83A00002070BD00003E
:100AC00030B585B00024009401940294039400682A
:100AD0001449884224D11448816941F480418161DC
:100AE000816901F480410491816941F004018161CF
:100AF00080690E4D00F0040004904FF400700090E7
:100B0000022001900320039069462846FFF790FBDE
:100B10002815CDE90004694628460294FFF788FBB2
:100B200005B030BD0038014000100240000801400F
:100B30002DE9F843044690F839001F4616460D4645
:100B400020284CD1C5B1BEB194F83800012846D058
:100B5000012084F838004FF00008C4F83C802120C0
:100B600084F83900FFF75AFCA6848146E684A06821
:100B7000B0F5805F03D004E00120BDE8F883206970
:100B800028B12E465FF0000584F838800EE000267C
:100B9000FAE78021204600F0F3F8A0B9AEB116F8CC
:100BA000010B21684860E08C401EE084E08C4B46DD
:100BB0004FF0000200970028EBD14FF04001204693
:100BC00000F0DEF830B10320D7E735F8020BC0F3B0
:100BD0000800E6E7202084F839000020CDE7022055
:100BE000CBE7FEE730B585B00024174800940194A8
:100BF00002940394816941F020018161816901F0CF
:100C000020010491816941F010018161816901F045
:100C100010010491816941F00401816180690B4DEB
:100C200000F004000490012203212846FFF7F0FBA6
:100C300003210120CDE90010CDE902416946284693
:100C4000FFF7F6FA05B030BD001002400010014079
:100C5000FEE77047704710B5FFF7E6FB00F008F9B4
:100C6000002807D000F0C0F900F0F8FABDE8104005
:100C700000F0C8B910BD30B58FB028216846FFF725
:100C8000B8FA14210AA8FFF7B4FA01210804CDE943
:100C900000100024029402250491CDE907504FF47E
:100CA000E01009906846FFF735FD0F20CDE90A05F1
:100CB0006802CDE90C4002210AA80E94FFF73EFC21
:100CC0000FB030BD7047000070B504460068016980
:100CD000E26821F44051114301612169A068084391
:100CE000616908432168CA6841F20C639A43024370
:100CF000CA6020684169A26921F4407111434161D1
:100D00001E492068884202D1FFF7BEFC01E0FFF7D0
:100D1000ABFC00EBC00101EB0012606864218000B5
:100D2000B2FBF0F3B3FBF1F36FF018067343B2FBC1
:100D3000F0F5B2FBF0F605EB8305322303EB051566
:100D4000B5FBF1F5B6FBF1F605F0F00505EB061580
:100D5000B2FBF0F6B2FBF0F0B0FBF1F06FF018026E
:100D6000504306EB800003EB0010B0FBF1F021686C
:100D700000F00F002844886070BD0000003801407A
:100D80002DE9F041984617460E460446069D1DE0A3
:100D9000681C1BD02DB1FFF741FBA0EB0800A84257
:100DA00014D92068C16821F4D071C16020684169FC
:100DB00021F001014161202084F8390084F83A00D3
:100DC000002084F838000320BDE8F0812068006826
:100DD00036EA000004D00020B842D9D00020F3E762
:100DE0000120F9E7FEE70000014A024900F023B8BC
:100DF000590E0008340000200907090E002804DB02
:100E000000F1E02080F80014704700F00F0000F1BE
:100E1000E02080F8141D704702E008C8121F08C1C6
:100E2000002AFAD170477047002001E001C1121F6B
:100E3000002AFBD170472DE9F04116460F460446C3
:100E4000002503E03946B047641C6D1C207800285B
:100E5000F8D12846BDE8F08113B54FF6FF730122A3
:100E600069460248FFF764FE00981CBD3800002068
:100E70000148407870470000180000200A4C0BA081
:100E8000FFF7B2FF002201212046FFF7C1FA6420DC
:100E900000F05AF9012211462046FFF7B9FA642002
:100EA00000F052F9EBE70000001001402A2A2A2046
:100EB00068656C6C6F202C207461736B2031202A64
:100EC0002A2A0A000A4C0BA0FFF78EFF00220221FB
:100ED0002046FFF79DFAC82000F036F901220221D2
:100EE0002046FFF795FAC82000F02EF9EBE7000046
:100EF000001001402A2A2A2068656C6C6F202C2083
:100F00007461736B2032202A2A2A0A000EB5FFF77B
:100F100093FAFFF7B0FEFFF765FE27482549002446
:100F200001604FF4E131C0E901140C21C460C0E953
:100F30000441FFF793FDFFF7F5F8204864210068AE
:100F4000B0FBF1F0401EB0F1807F09D24FF0E021FC
:100F500048611B4AF02082F8140D8C61072008615B
:100F600000F0C8F800F010F913484FF400759830FD
:100F7000CDE90005A0F158010023124A0294012096
:100F800000F01CF90C48403000F054F90E49CDE94E
:100F900000150120029000230C4AA1F50B710220DC
:100FA00000F00CF904486C3000F044F900F0B8F897
:100FB000FEE7000000380140380000200C0000204F
:100FC0000FE000E07D0E0008D0020020C50E0008F2
:100FD0000146002021FA00F2D20704D1401CC0B221
:100FE0002028F7D30120704710B5FFF79BF8044A7B
:100FF0001178491C1170BDE81040FFF797B8000048
:101000001400002010B5FFF78DF8044A1178491E2E
:101010001170BDE81040FFF789B8000014000020EF
:101020004060006070474268116042684A604160F9
:101030007047D0E900124A60D0E9001211604060A8
:101040000060704710B5FFF76DF80B4B0446586809
:10105000FFF7BEFF09499A6851F8301020399142D4
:1010600004D0187010469960FFF763F82046BDE879
:101070001040FFF75BB8000018000020D0040020EB
:1010800070B50446FFF74EF8054601206075E07D17
:10109000084901EBC00004F12001FFF7C4FF064836
:1010A000E1694268114341602846BDE87040FFF79E
:1010B0003DB80000D00400201800002030B50346E1
:1010C000121D22F007000022094C403840F822404F
:1010D000521C102AFAD30162002141628162C1626E
:1010E0004FF08072C2630163C0E90D1330BD000090
:1010F000EFBEADDE70B5084D002400BF05EBC400A7
:10110000FFF78EFF641C202CF8D304481F210170C8
:1011100000218160416070BDD004002018000020D3
:10112000074B10B55868FFF753FF064951F83000D8
:101130002038012198605970BDE81040FFF727B8AA
:1011400018000020D004002010B50446FEF7EAFF86
:101150000749022209688C624A75CB6905490A6809
:101160009A430A60FEF7E2FFBDE81040FFF76ABF4E
:10117000200000201C00002002480168491C01607A
:10118000FCE70000240000200EB509481F224FF4A0
:1011900000718DE80700002300F50071054A18462C
:1011A00000F00CF8BDE80E40034800F043B8000022
:1011B000D005002079110008D00700202DE9F04764
:1011C000824608A81D4690E8800316460C4601F1A9
:1011D0002000FFF725FF84F814A0C4E90378C4E9D0
:1011E000016507EB080230462946121FFFF766FF2C
:1011F000206084F8189084F817900020E061A075B2
:101200006075BDE8F08770B50446407D022801D0C6
:10121000012070BDFEF786FF054604F12000FFF7B0
:1012200008FF2846FEF782FF2046FFF729FF00202F
:1012300070BD000010B5017E0122C1758A400221F7
:10124000C2614175FFF7DFFF0348006808B1FFF78F
:10125000F9FE002010BD0000200000200F4830B42F
:1012600001680F4C491C016000200E4A04E018B1CF
:10127000012801D002280BD154F830108B68203996
:1012800013B15B1E8B6203E0C969136819431160D7
:10129000401C2028EBD330BCFFF7D4BE1000002048
:1012A000D00400201C00002000000000000000000E
:1012B00001020304060708090000000001020304FC
:1012C000E01200080000002038000000180E00089E
:1012D0001813000838000020C80B0000280E000872
:1012E0000100000010000000000000000024F400D5
:1012F00000000000000000000000000000000000EE
:1013000000000000000000000000000000000000DD
:081310000000000000000000D5
:04000005080000ED02
:00000001FF
