:020000040800F2
:100000004024002001010008AF1400082514000856
:10001000AD1400084907000811170008000000008F
:10002000000000000000000000000000B114000803
:100030004B0700080000000053010008B31400083B
:100040001B0100081B0100081B0100081B01000820
:100050001B0100081B0100081B0100081B01000810
:100060001B0100081B0100081B0100081B01000800
:100070001B0100081B0100081B0100081B010008F0
:100080001B0100081B0100081B0100081B010008E0
:100090001B0100081B0100081B0100081B010008D0
:1000A0001B0100081B0100081B0100081B010008C0
:1000B0001B0100081B0100081B0100081B010008B0
:1000C0001B0100081B0100081B0100081B010008A0
:1000D0001B010008051700081B0100081B01000890
:1000E0001B0100081B0100081B010008DFF80CD0F1
:1000F00000F09AFA00480047AD2000084024002094
:100100000648804706480047FEE7FEE7FEE7FEE7B1
:10011000FEE7FEE7FEE7FEE7FEE7FEE72D15000837
:10012000ED000008EFF3108072B6704780F310887E
:100130007047254A1368012B04D04FF00103136068
:10014000224A1060224A116022484FF0805101601B
:100150007047EFF3108272B61B48016891B14FF0FF
:10016000000101601948016829B1EFF3098121E913
:10017000F00F00680160164909680968B1E8F00FDE
:1001800081F3098882F310884EF0040E70471049FD
:1001900008600E494FF0000008600B494FF0010065
:1001A00008600D480D49D0F8002041EA02010160C5
:1001B00008484FF08051016009480068006880F3EA
:1001C000088861B662B67047380000203000002011
:1001D0003400002004ED00E020ED00E00000FFFF0F
:1001E00008ED00E0202A04DB203A21FA02F0002189
:1001F000704721FA02F3D040C2F120029140084337
:1002000019467047D2B201E000F8012B491EFBD21B
:1002100070470022F6E710B513460A460446194611
:10022000FFF7F0FF204610BD30B50B460146002019
:100230002022012409E021FA02F59D4205D303FAA8
:1002400002F5491B04FA02F52844151EA2F1010229
:10025000F1DC30BD2DE9F05F0546002092469B465B
:1002600088460646814640241BE0284641464746CC
:100270002246FFF7B7FF53465A46C01A914110D3A2
:1002800011461846224600F0E1F92D1A67EB0108E5
:100290004F4622460120002100F0D8F917EB000953
:1002A0004E41201EA4F10104DFDC484631462A46B7
:1002B0004346BDE8F09F2DE9FE4F804681EA0300EA
:1002C000C00F0C46009021F0004123F00045B8EB30
:1002D0000200A94105D24046214690461C460B46E5
:1002E000024623F00040104347D0270DC7F30A0011
:1002F000C3F30A510290401A019040286BDAC3F30D
:10030000130040F4801B0098924620B10023D2EBEA
:10031000030A63EB0B0B01985946C0F140025046AB
:1003200000F094F906460D4650465946019A00F0F1
:100330009CF910EB08006141002487EA115284EA1D
:10034000E7731A4340D0009A62B3019A012A4FEA38
:10035000075215DC001B61EB02014FF0004202EA7C
:100360000752CDE90042001C41F5801132462B4670
:1003700000F09CF903B0BDE8F08F40462146F9E754
:10038000001B61EB0201001C41F5801300185B416A
:100390002018A2F5001747EB030140EAD570B61903
:1003A0006D4111E06D084FEA360645EAC0754FEA27
:1003B0000752001B61EB0201001C41F58011490846
:1003C0004FEA30000019514132462B4603B0BDE8D8
:1003D000F04F00F05CB90098012240000023D0EB00
:1003E000020263EBE073009821464FEAE074B8EB39
:1003F000000061EB0401E9E783F000435BE781F073
:10040000004158E72DE9FE4F81EA030404F000445F
:1004100021F0004100944FF0000B23F0004350EA1C
:1004200001045ED052EA03045BD0C3F30A54C1F363
:100430000A552C44A4F2F3340194A0FB0254C1F3F6
:10044000130141F48011C3F3130343F4801301FB40
:10045000024400FB034E840A970A44EA815447EAA7
:100460008357A4FB076802958D0A05FB07854FEAB1
:10047000932C04FB0C542705029D4FEA065847EACB
:100480001637B5EB08056EEB070C870E920E47EAA0
:10049000811742EA8312A7FB0201B6EB0B0164EB62
:1004A00000042B0D43EA0C335E1844EB1C50DA4673
:1004B0005146E7FB0201C5F313044FEA0B3343EA4D
:1004C00014534FEA0432019C43EA0603A4F10C04DE
:1004D0000294009CCDE900B400F0E8F803B0BDE858
:1004E000F08F00200146F9E72DE9F04D81EA030481
:1004F00004F0004B21F0004514464FF0000A23F0B1
:10050000004150EA050220D054EA01021DD0C5F393
:100510000A570246C5F31303C1F31300C1F30A5689
:1005200040F4801543F48013A7EB0608101BD64651
:1005300008F2FD3873EB050002D308F1010801E071
:1005400092185B41B8F1000F03DA00200146BDE8C4
:10055000F08D00204FF48011064684460EE0171BF4
:1005600073EB050705D3121B63EB050306434CEA47
:10057000010C49084FEA300092185B4150EA01072C
:10058000EDD152EA030012D082EA040083EA0501A9
:10059000084305D0101BAB4106D20122002306E020
:1005A00000224FF0004302E06FF0010253101AEBFB
:1005B00006004CEB085110EB0A0041EB0B01BDE8C3
:1005C000F04D00F064B8C1F30A52C1F3130140F2D8
:1005D000FF3341F480119A4202DA0020014670474D
:1005E00040F233439A42A2F2334202DC5242FFF716
:1005F000F9BD00F02BB8000030B5041E71F1000405
:1006000004DB4FF00044404264EB0101141E73F11F
:10061000000405DB1C464FF00043524263EB040329
:10062000994208BF904230BD064C074D06E0E06895
:1006300040F0010394E8070098471034AC42F6D329
:10064000FFF758FD1426000834260008202A04DB92
:10065000203A00FA02F1002070479140C2F12003D5
:1006600020FA03F3194390407047202A06DBCB178A
:10067000203A41FA02F043EAE07306E041FA02F35D
:10068000D040C2F12002914008431946704710B58E
:10069000141E73F1000408DA401C41F100019218A5
:1006A0005B411A4301D120F0010010BD2DE9F04D4E
:1006B00092469B4611B1B1FA81F202E0B0FA80F2A3
:1006C00020329046FFF7C2FF04460F4640EA0A0078
:1006D00041EA0B0153465A46084313D0114653EAE8
:1006E000010019D0C8F140025046FFF77BFD0546D6
:1006F0000E46504659464246FFF7A8FF084305D02C
:10070000012004E020463946BDE8F08D0020054375
:1007100046EAE0762C4337430A986305E40AA0EBE7
:1007200008000022FD0A44EA47540A3002D500209E
:100730000146E9E7010510196941DDE9084500199D
:100740006941BDE8F04DA2E7FEE7704710B590F8AB
:1007500021100024022903D00421816301243DE0FB
:1007600001680A6822F00E020A6001680A6822F035
:1007700001020A601A4A0168914201D1012121E077
:10078000174A1432914201D110211BE0144A283239
:10079000914201D1891515E0114A3C32914201D1B3
:1007A00089140FE00E4A5032914202D14FF4803149
:1007B00008E00B4A6432914202D14FF4801101E00B
:1007C0004FF08071064A083A5160012180F82110EB
:1007D000002180F82010416B01B18847204610BDF0
:1007E000080002402DE9F84FDFF8B891002409F124
:1007F000040A0AF1040B23460F270BF1040EC9E08B
:100800000125A5402A40AA427DD1674ED1F804C0F7
:10081000ACEB0608B44532D014DCBCF1030F3AD07F
:1008200009DCBCF1000F2AD0BCF1010F1CD0BCF1D7
:10083000020F31D11DE0BCF1110F17D0BCF1120F26
:100840002AD119E0B8F5881F19D006DCB8F5803F29
:1008500015D0B8F5801F1FD111E0B8F5001F0ED0DC
:10086000B8F5041F18D10AE0CB6815E0CB681B1D52
:1008700012E0CB6808330FE0CB680C330CE08B68D8
:100880002BB1012B4FF0080303D0456104E0042392
:1008900002E0056100E00023FF2A01D8064601E0DE
:1008A00000F104064FEA840501D9A5F12005D6F828
:1008B000008007FA05FC28EA0C0803FA05F548EA67
:1008C0000508C6F800804D68ED0062D5374DAE6969
:1008D00046F00106AE61AD6924F0030605F001059E
:1008E0000095334D06EB050CDCF80850A607360FD3
:1008F00007FA06F825EA0805DFF8B880404503D175
:100900004FF0000817E044E0DFF8AC80404502D12A
:100910004FF001080FE0DFF8A480404502D14FF00E
:10092000020808E0DFF89880404502D14FF0030844
:1009300001E04FF0040808FA06F848EA0508CCF888
:1009400008804D68D9F80060ED034D4601D5164387
:1009500000E096432E604D68DAF80060AD0355461E
:1009600001D5164300E096432E604D68DBF8006029
:10097000ED025D4601D5164300E096432E604D68BA
:10098000DEF80060AD02754601D5164300E09643DF
:100990002E60641C0D682A46E5407FF431AFBDE847
:1009A000F88F000000040140000011100010024008
:1009B0000000014000080140000C0140001001400F
:1009C000001401400AB1016170470904FBE700000F
:1009D00001488068704700000800002002488168D4
:1009E000027811448160704708000020074810B564
:1009F000016841F010010160032000F075F800204B
:100A000000F006F800F024F8002010BD002002409D
:100A100070B50D4D04464FF47A712878B1FBF0F0B3
:100A20000A490968B1FBF0F000F010FB48B9102C3E
:100A300007D200222146501E00F036F800206C60DC
:100A400070BD012070BD00000800002014000020CF
:100A50000C4808B5816941F001018161816901F0AB
:100A600001010091C16941F08051C161C06900F08C
:100A7000805000900448416821F0E06141F08061BD
:100A8000416008BD0010024000000140002809DB61
:100A900000F01F02012191404009800000F1E02098
:100AA000C0F8001170470000F0B40E4B1B680C46F4
:100AB000C3F30223C3F10705042D00D90425191D32
:100AC000072901D2002300E0DB1E012606FA05F10A
:100AD000491E214099409E40761E16403143F0BC8D
:100AE00000F02EBE0CED00E0064900F00702086899
:100AF0004FF6FF03184040EA0220034A1043086003
:100B0000704700000CED00E00000FA052DE9F04709
:100B10000F46050061D0434E306800F00700B84230
:100B200009D2306820F0070038433060306800F0A8
:100B30000700B84251D128683B4C810712D54007C5
:100B400003D5606840F4E06060602878000703D552
:100B5000606840F4605060606068A96820F0F00050
:100B6000084360602878C00728D06868012810D042
:100B70002168022810D0890700292EDA616821F047
:100B8000030101436160FFF723FF804641F288398A
:100B90000DE021688903EFE78901EDE7FFF718FF12
:100BA000A0EB0801494502D90320BDE8F087606841
:100BB000696800F00C00B0EB810FEFD1306800F0F5
:100BC0000700B8420BD9306820F007003843306086
:100BD000306800F00700B84201D00120E5E728782E
:100BE000400705D56068E96820F4E060084360606C
:100BF0002878000706D56068296920F4605040EA2B
:100C0000C100606000F038F86168084AC1F3031160
:100C1000515CC8400649086006480068FFF7F8FEC6
:100C20000020C2E70020024000100240FC2500081E
:100C3000140000200C0000200448054900684968A1
:100C4000044AC1F30221515CC840704714000020DF
:100C5000001002400C260008044805490068496855
:100C6000044AC1F3C221515CC840704714000020FF
:100C7000001002400C26000812A185B00FC98DE8B3
:100C80000F0014A0144A006804905168134801F042
:100C90000C03042B10D0082B0ED1C1F38343C903DE
:100CA0001DF803000AD5516804AAC1F34041515C04
:100CB0000A4A5043B0FBF1F005B070470849484379
:100CC000FAE7000002030405060708090A0B0C0DE9
:100CD0000E0F1010010200000010024000127A00F6
:100CE00000093D0030B585B000200290022001903F
:100CF000032003900B4C4FF480700090A0690D46C8
:100D000040F00400A061A069694600F0040004906E
:100D10000548FFF767FD606820F0E06028436060E9
:100D200005B030BD00100240000801402DE9F84F29
:100D3000040070D02078C04DC00749D06868C0F367
:100D40008100012807D06868C0F38100022809D11A
:100D50006868C00306D52868800339D56068002814
:100D6000E7D035E06068B0F5803F0BD010B1B0F54A
:100D7000A02F11D0286820F480302860286820F443
:100D8000802002E0286840F480302860606890B1DC
:100D9000FFF71EFE06460AE0286840F4802028601F
:100DA000F0E700BFFFF714FE801B642873D82868A3
:100DB0008003F7D50CE0FFF70BFE064605E000BF09
:100DC000FFF706FE801B6428F0D828688003F7D45C
:100DD00020789A4E80074FF001094FF0000839D56E
:100DE000686810F00C0F07D06868C0F38100022813
:100DF00009D16868C00306D42868800714D5206923
:100E0000012808D110E02069B0B1C6F80090FFF7C2
:100E1000DFFD074605E00AE1FFF7DAFDC01B022807
:100E2000C4D828688007F7D52868616920F0F800E1
:100E300040EAC10028600DE0C6F80080FFF7C8FD59
:100E4000074604E0FFF7C4FDC01B022823D828682A
:100E50008007F7D4207800072CD57948A169D9B14B
:100E6000C0F80090FFF7B4FD074604E0FFF7B0FDBF
:100E7000C01B02280FD8686A8007F7D571484FF465
:100E8000FA510068B0FBF1F0009000BF0098411EDD
:100E90000091FAD20EE080E0C0F80080FFF798FDE4
:100EA000074604E0FFF794FDC01B022875D8686A66
:100EB0008007F7D42078400760D5E8690027C00094
:100EC00008D4E86940F08050E861E869012700F043
:100ED000805000905C480168C90513D401688346BE
:100EE00041F480710160FFF773FD824606E000BFA8
:100EF000FFF76EFDA0EB0A0064284ED8DBF8000077
:100F0000C005F5D5E06801280AD008B1052813D03E
:100F1000286A20F001002862286A20F0040002E01C
:100F2000286A40F001002862E06841F2883B98B1ED
:100F3000FFF74EFD82460BE0286A40F0040028626D
:100F4000EEE700BFFFF744FDA0EB0A0159455AD870
:100F5000286A8007F6D50CE0FFF73AFD824605E0E7
:100F6000FFF736FDA0EB0A0159454CD8286A8007E7
:100F7000F6D41FB1E86920F08050E861E06988B3D9
:100F80006968C1F38101022944D00228C6F8608053
:100F900004D0FFF71DFD044638E034E0FFF718FDEC
:100FA000074604E0FFF714FDC01B02282BD8286871
:100FB0008001F7D4206AB0F5803F05D16868A16848
:100FC00020F4003008436860D4E9080108436968E8
:100FD00021F4741108436860C6F86090FFF7F8FCCC
:100FE000044606E025E000BFFFF7F2FC001B0228E4
:100FF00009D828688001F7D51BE000BFFFF7E8FC9F
:10100000001B022802D90320BDE8F88F2868800160
:10101000F4D40EE00128F7D06868226A00F4803129
:10102000914204D1616A00F47010884201D001201D
:10103000EAE70020E8E7000000100240000042421A
:1010400080044242140000200070004010B5401E91
:10105000B0F1807F01D3012010BD4FF0E02460612A
:101060000F21601700F06CFB0020A06107202061B9
:10107000002010BD7047000070B50268044610687B
:10108000D168536910F00F0F52D003F0010501F43D
:1010900090762E435FD0C20705D0CA0503D5E26B18
:1010A00042F00102E263420705D5DA0703D0E26BA2
:1010B00042F00202E263820705D5DA0703D0E26B51
:1010C00042F00402E263020707D501F020022A433E
:1010D00003D0E26B42F00802E263E26B002A33D0F5
:1010E000800604D5880602D5204600F036FA20682E
:1010F0004069E16BC0F38010090700D428B3204693
:1011000000F01DFA2068416949061AD5416921F0AD
:1011100040014161606BA0B12D494163606BFFF7F5
:1011200015FB002810D0606B416BBDE8704008478C
:10113000830610D58B060ED52046BDE8704000F022
:101140000CBA2046FFF796FF70BD2046FFF792FFCE
:101150000020E06370BD03062BD50B0629D594F85B
:1011600039002128F6D1A068B0F5805F01D120694F
:10117000B0B1206A411C2162216800784860E08C8F
:10118000401E0004000CE084E4D12068C16821F016
:101190008001C1602068C16841F04001C16070BD3C
:1011A000206A0088C0F308005060206A801C20621A
:1011B000E5E74006F3D54806F1D5D168204621F091
:1011C0004001D160202184F8391000F02AF970BD67
:1011D0002F15000870B5040004D094F839000025DC
:1011E00010B106E0012070BD84F83850204600F0B0
:1011F00023F8242084F839002068C16821F40051C4
:10120000C160204600F0F0F92068016921F49041A6
:1012100001612068416921F02A0141612068C168AB
:1012200041F40051C160E563202084F8390084F85E
:101230003A00002070BD000030B585B00024009455
:101240000194029403940068184988422CD11848EC
:10125000816941F480418161816901F48041049197
:10126000816941F0040181618069124D00F0040040
:1012700004904FF40070009002200190032003902E
:1012800069462846FFF7AEFA2815CDE900046946FD
:1012900028460294FFF7A6FA002211462520FFF700
:1012A00003FC2520FFF7F2FB05B030BD00380140FC
:1012B000001002400008014090F83A30202B22D163
:1012C000F9B1F2B190F83830012B1CD081628285DF
:1012D000C2850021C163222280F83A2080F83810AC
:1012E0000168CA6842F48072CA6001684A6942F0C3
:1012F00001024A610068C16841F02001C16000201C
:10130000704701207047022070470000114910B556
:101310004868114A401C0C4648601044217800F887
:10132000011C0EA000F0B2FF20780D2808D10C4956
:10133000012008710BA000F0A9FF0BA000F0A6FF90
:1013400000202070BDE81040012202490748FFF745
:10135000B3BF000000000020D4040020256300007B
:10136000342000200A0D00003D3D3E003C000020DE
:101370002DE9F843044690F839001F4616460D46FD
:1013800020284CD1C5B1BEB194F83800012846D010
:10139000012084F838004FF00008C4F83C80212078
:1013A00084F83900FFF714FBA6848146E684A06820
:1013B000B0F5805F03D004E00120BDE8F883206928
:1013C00028B12E465FF0000584F838800EE0002634
:1013D000FAE78021204600F063F9A0B9AEB116F813
:1013E000010B21684860E08C401EE084E08C4B4695
:1013F0004FF0000200970028EBD14FF0400120464B
:1014000000F04EF930B10320D7E735F8020BC0F3F6
:101410000800E6E7202084F839000020CDE702200C
:10142000CBE77047FEE7000030B585B000241C48CC
:101430000094019402940394816941F01001816148
:10144000816901F010010491816941F020018161FD
:10145000816901F020010491816941F004018161F9
:101460008069104D00F004000490012203212846F9
:10147000FFF7A8FA03210120CDE90010CDE90241D0
:1014800069462846FFF7AEF9A815009002200190A2
:10149000039069460448FFF7A5F905B030BD000088
:1014A000001002400010014000080140FEE77047B4
:1014B000704710B5FFF792FA00F0C6FD002807D07C
:1014C00000F0B6FE01F06EF8BDE8104000F0BEBEC0
:1014D00010BD30B58FB028216846FEF79AFE142162
:1014E0000AA8FEF796FE01210804CDE900100024A9
:1014F000029402250491CDE907504FF4E0100990C1
:101500006846FFF713FC0F20CDE90A056802CDE914
:101510000C4002210AA80E94FFF7F8FA00224FF0BF
:10152000E0611046FFF7DEFB0FB030BD704710B52D
:10153000406A0021C185C184FFF79CFD10BD016890
:10154000CA6822F49072CA6001684A6922F00102F6
:101550004A61202180F83A10704710B590F83A108F
:10156000222901D0022010BD82684FF480539A4294
:1015700001D1016921B1816A9A421BD04AB10AE0C6
:101580000268816A5268C2F308020A80816A891C73
:1015900008E0026972B10268526802F07F020A70C4
:1015A000816A491C8162C18D491E0904090CC185EB
:1015B00003D016E002685268F1E70168CA6822F0B9
:1015C0002002CA600168CA6822F48072CA60016899
:1015D0004A6922F001024A61202180F83A10FFF79F
:1015E00095FE002010BD000070B50446006801693A
:1015F000E26821F44051114301612169A068084368
:10160000616908432168CA6841F20C639A43024346
:10161000CA6020684169A26921F4407111434161A7
:101620001E492068884202D1FFF716FB01E0FFF750
:1016300003FB00EBC00101EB001260686421800035
:10164000B2FBF0F3B3FBF1F36FF018067343B2FB98
:10165000F0F5B2FBF0F605EB8305322303EB05153D
:10166000B5FBF1F5B6FBF1F605F0F00505EB061557
:10167000B2FBF0F6B2FBF0F0B0FBF1F06FF0180245
:10168000504306EB800003EB0010B0FBF1F0216843
:1016900000F00F002844886070BD00000038014051
:1016A0002DE9F041984617460E460446069D1DE07A
:1016B000681C1BD02DB1FFF78BF9A0EB0800A842E6
:1016C00014D92068C16821F4D071C16020684169D3
:1016D00021F001014161202084F8390084F83A00AA
:1016E000002084F838000320BDE8F08120680068FD
:1016F00036EA000004D00020B842D9D00020F3E739
:101700000120F9E70148FFF7B7BC00003C000020CA
:10171000FEE700007CB5044600201D461646002961
:101720000BD0491ECDE90041044B6A46294630469C
:1017300000F0E8F8009A002111707CBD3320000809
:101740000907090E002804DB00F1E02080F80014EE
:10175000704700F00F0000F1E02080F8141D704782
:1017600002E008C8121F08C1002AFAD1704770476A
:10177000002001E001C1121F002AFBD170470000C8
:101780002DE9FF5F82B00021DDE90430020DDDF8B4
:1017900040B0034318D044F61050A2F2FF32424347
:1017A0001514119801281FD0A5EB0B00401C5FEA0F
:1017B000000A4FF000064E4FDFF83891B046504611
:1017C00015D5CAF1000413E0119801244AA3012899
:1017D00001D16FEA0B010298119AC0E90031C0E90A
:1017E000024206B0BDE8F09FCBF10000DFE70446FF
:1017F0000021404A491842EB0450CDE9001012E0A4
:10180000E00707D032463B4640464946FEF7FAFD20
:101810008046894632463B4610461946FEF7F2FDA1
:1018200006460F466410002CEAD1DDE90401DDE92B
:101830000023BAF1000F06DAFEF7E4FD42464B46FC
:10184000FEF7E0FD05E0FEF74FFE42464B46FEF791
:101850004BFE04460E460022284BFEF7CDFE03D871
:101860004FF0FF30014607E00022254B204631466D
:10187000FEF721FDFEF7A7FE102409E0002C0ADB8D
:101880000A220023FEF7E6FC039B30321A55641E41
:1018900050EA0102F2D1641C039AC4F1110314440A
:1018A000119A012A03D0012208430DD10AE008430E
:1018B00004D000204FF0110B119072E7A3EB0B0541
:1018C0006D1E0DE05B4504DD4FF0000205F10105E2
:1018D00004E003DA4FF00002A5F10105002AECD084
:1018E00002981199C0E90231C0E9004579E700008A
:1018F000000014400000F03F300000000000F04302
:101900000000E03F2DE9FF4F95B09B468946064613
:1019100000250FE2252877D100242746F84A012127
:10192000059400E0044316F8013F203B01FA03F060
:101930001042F7D130782A2811D06FF02F03307879
:10194000A0F13002092A16D8059A44F0020402EBED
:10195000820203EB42021044761C0590EFE759F82F
:10196000042B0592002A03DA504244F400540590F7
:1019700044F00204761C30782E2816D116F8010F98
:1019800044F004042A280DD06FF02F023078A0F123
:101990003003092B09D807EB870302EB4303C71871
:1019A000761CF3E759F8047B761C30786C280FD04E
:1019B00006DC4C2817D068280DD06A2814D104E022
:1019C000742810D07A280FD10DE044F400140AE0F6
:1019D00044F4801401E044F440147278824202D14D
:1019E00004F58014761C761C307866280BD013DC46
:1019F000582877D009DC002875D04528F6D046282D
:101A0000F4D047281AD19DE118E0632835D0642826
:101A100079D0652812D195E1702873D008DC672849
:101A2000F1D069286FD06E280DD06F2806D1B5E0AF
:101A300073282CD0752875D0782874D05A461799F9
:101A400090476D1C75E1C4F30250022809D00328A9
:101A50000DD0D9F8001004280DD00D6009F104094B
:101A600067E1D9F80010EA17C1E90052F6E7D9F8A2
:101A700000100D80F2E70D70F0E719F8041B8DF8E7
:101A8000001000208DF80100EA46012003E059F81B
:101A900004AB4FF0FF3061074FF0000102D40DE0BE
:101AA00008F101018846B9420FDA8045F8DB1AF8DF
:101AB00008100029F4D108E008F1010188468142AC
:101AC000FADB1AF808100029F6D105985B46A0EB5E
:101AD000080721463846179A00F094FA284400EB8C
:101AE000080507E04DE029E10DE01AF8010B5A4620
:101AF00017999047B8F10108F7D25B46214638465E
:101B0000179A13E142E00A220092C4F302524FF006
:101B1000000A022A08D059F804CB032A4FEAEC71D4
:101B20000AD00DE029E02AE009F1070121F00702BF
:101B3000F2E802C1914609E00FFA8CFC4FEAEC7121
:101B4000042A03D14FFA8CFC4FEAEC71002907DA22
:101B50000A460021DCF1000C61EB02012D2202E0BB
:101B6000220504D52B228DF80420012203E0E20790
:101B700001D02022F7E7904659E00A2102E0102226
:101B80000DE010214FF0000A00910BE010224FF001
:101B9000000A44F004040827009203E008224FF0F2
:101BA000000A0092C4F30252022A05D059F804CB6D
:101BB0000021032A08D009E009F1070121F00702FA
:101BC000F2E802C1914605E01FFA8CFC042A01D11B
:101BD0000CF0FF0C4FF00008220728D5702806D023
:101BE000009B83F0100353EA0A0305D00EE0402265
:101BF0008DF80420012208E05CEA010206D03022C0
:101C00008DF804208DF8050002229046009B83F099
:101C1000080353EA0A030AD15CEA010201D1620710
:101C200005D530228DF804204FF001087F1E58287A
:101C300004D034A003900EA802900DE036A0F9E77E
:101C400053466046009AFEF705FB84460398825C83
:101C50000298401E029002705CEA0100F0D10298E6
:101C600006A9081A00F1200A600702D524F480347E
:101C700000E00127574502DDA7EB0A0000E0002045
:101C800000EB0A01009005984144401A0590E003DA
:101C900006D45B462146179A059800F0B3F905442F
:101CA000002706E001A85A46C05D179990476D1CB1
:101CB0007F1C4745F6DBE0030CD55B462146179AAF
:101CC000059800F09FF9054404E030205A46179922
:101CD00090476D1C0099481E00900029F5DC08E033
:101CE000029802995A460078491C02911799904728
:101CF0006D1CBAF10001AAF1010AF1DC65E10000F6
:101D000009280100303132333435363738396162D1
:101D10006364656600000000303132333435363795
:101D200038394142434445460000000000F058F96C
:101D30000544761C307800287FF4ECAD19B02846B5
:101D4000BDE8F08F620700D4062709F1070222F0F0
:101D5000070CFCE80223E14603F000485FEA080CA8
:101D600002D00FF2702C0DE05FEA045C02D50FF296
:101D7000682C07E05FEAC47C02D00FF2602C01E01F
:101D8000AFF2700C4FF0FF3823F00043CDF850C095
:101D900065280CD006DC452809D046281DD04728E8
:101DA0003DD13DE0662818D067287ED138E000217B
:101DB000112F01DB112000E0781CCDE9000106A9FC
:101DC0000EA8FFF7DDFCDDE90F010E9A039100215B
:101DD000009207F1010A04914DE04FF00040009796
:101DE000CDE9011006A90EA8FFF7CAFCDDE90F0234
:101DF00003920E9B11990022DDF80CA0009304922F
:101E000011B9791C00EB010AB7EB0A0004D4C0F148
:101E1000FF3007F1010A0490AAEB0700019044E0AB
:101E2000012F00DA01270021112F01DD112000E030
:101E30003846CDE9000106A90EA8FFF7A1FCDDE9AF
:101E40000F010E9A0391002104910092BA462107D6
:101E50000CD40399514500DA8A46BAF1010F05DD29
:101E6000009AAAF10101515C302908D0B84202DA87
:101E700010F1040F06DA0121CDE9011015E0AAF1F5
:101E80000101E9E7002805DC049901440491AAEB6B
:101E9000000102E0411C514500DD8A460499401AC8
:101EA000401C01904FF000400290200704D401989C
:101EB000504501DBCDF8048000208DF84F000298DA
:101EC0000DF14F07B0F1004F25D02B200E90029856
:101ED0004FF0020800280CDA404202902D200E90AC
:101EE00007E00A210298FEF79FF93031029007F8C7
:101EF000011DB8F10001A8F10108F2DC02980028E8
:101F0000EFD1791E0E980870307800F0200040F074
:101F1000450007F8020D12A8C01B00F1070814982D
:101F2000007800B1012000EB0A01019801EBE0719B
:101F300005984144401A401E0590E00306D45B46D4
:101F40002146179A059800F05DF80544149800782A
:101F500018B15A46179990476D1CE00324D55B468B
:101F60002146179A059800F04DF805441CE00498A6
:101F7000002807DBDDE90301884203DD0098405CAF
:101F8000179901E0179930205A469047049805F1B7
:101F90000105401C04900198401E019004D12E20A0
:101FA0005A46179990476D1CBAF10001AAF1010A2F
:101FB000DDDC05E017F8010B5A46179990476D1CB8
:101FC000B8F10001A8F10108F4DC5B462146179A3C
:101FD0000598ABE62D0000002B000000200000005B
:101FE0002DE9F041044600251E461746880404D416
:101FF00005E039462020B0476D1C641EF9D52846FF
:10200000BDE8F0812DE9F041044600251E469046CA
:10201000C80301D5302700E02027880404D505E057
:1020200041463846B0476D1C641EF9D52846BDE8C8
:10203000F0814A68002A06D00A68531C0B601070B1
:102040004868401E4860704701484078704700006B
:10205000200000200A4C00BF00F028F900220121D6
:102060002046FEF7AFFC642000F0C2F901221146C1
:102070002046FEF7A7FC642000F0BAF9ECE7000068
:1020800000100140084C002202212046FEF79AFC75
:10209000C82000F0ADF9012202212046FEF792FC93
:1020A000C82000F0A5F9EEE7001001400EB5FEF7DC
:1020B0009DFCFFF70EFAFFF7B7F92A4828490024DC
:1020C00001604FF4E131C0E901140C21C460C0E9A2
:1020D00004418461C461FFF77DF80122224921484F
:1020E000FFF7EAF8FEF71EF8204864210068B0FB0D
:1020F000F1F0401EB0F1807F09D24FF0E02148613D
:102100001B4AF02082F8140D8C610720086100F052
:1021100029F900F08DF900F0F7F901201149440286
:102120009831CDE900140023124A0290583900F08A
:1021300099F90C48403000F00DFA0F49CDE9001430
:10214000022000230D4A0290A1F50B7100F08AF9DC
:1021500004486C3000F0FEF900F01AF9FEE70000C8
:10216000003801403C000020000000201400002046
:102170000FE000E055200008D40200208520000870
:1021800070B50D480468FDF7CDFF0546A068417D98
:1021900002290CD1217951B10021217100F087F978
:1021A0002846FDF7C3FF00F081F8012070BD2846E6
:1021B000FDF7BCFF002070BD081C0020116090607E
:1021C000002010710120507101480260704700002A
:1021D000081C002070B50446FDF7A4FF05464FF427
:1021E0007A760EE00A2805D1334601220D210948EE
:1021F000FFF7BEF82146641C334601220548FFF76D
:10220000B7F820780028EDD12846BDE87040FDF7EA
:102210008DBF00003C0000200146002021FA00F2A2
:10222000D20704D1401CC0B22028F7D30120704748
:1022300010B5FDF777FF044A1178491C1170BDE80D
:102240001040FDF773BF00001C00002010B5FDF723
:1022500069FF044A1178491E1170BDE81040FDF76E
:1022600065BF00001C0000204060006070474268AD
:10227000116042684A6041607047D0E900124A60CC
:10228000D0E9001211604060006070470FB48021F7
:1022900010B503AB0448029AFFF73CFA0248FFF777
:1022A00099FF10BC5DF814FB881B002010B5FDF7EA
:1022B00039FF0D4B04465868FFF7AEFF02460B4846
:1022C00050F8321098682039814207D01A700222E3
:1022D0004275032299604A75FDF72BFF2046BDE841
:1022E0001040FDF723BF0000200000205C180020F4
:1022F00070B50446FDF716FF054601206075E07DC8
:10230000084901EBC00004F12001FFF7B0FF0648C7
:10231000E1694268114341602846BDE87040FDF71D
:1023200005BF00005C1800202000002030B50346E7
:10233000121D22F007000022094C403840F82240CC
:10234000521C102AFAD30162002141628162C162EB
:102350004FF08072C2630163C0E90D1330BD00000D
:10236000EFBEADDE70B5084D002400BF05EBC40024
:10237000FFF77AFF641C202CF8D304481F2101705A
:1023800000218160416070BD5C18002020000020A9
:102390000C4B10B55868FFF73FFF0B4951F8304020
:1023A000032004F80B0C203C01209C60587007A00F
:1023B000FFF76CFF0DA0FFF769FF2046BDE8104056
:1023C000FDF7E5BE200000205C1800200D0A205813
:1023D000696469616E4F53206B65726E656C207223
:1023E000756E6E696E67200A0D0000003D3D3E006F
:1023F00010B50446FDF796FE0749022209688C6273
:102400004A75CB6905490A689A430A60FDF78EFE52
:10241000BDE81040FFF74ABF28000020240000203C
:1024200002480168491C0160FCE700002C00002004
:102430000EB509481F224FF400718DE807000023F4
:1024400000F50071054A184600F00CF8BDE80E4092
:10245000034800F07FB800005C1900202124000828
:102460005C1B00202DE9F047824608A81D4690E835
:10247000800316460C4601F12000FFF7F5FE84F8B4
:1024800014A0C4E90378C4E9016507EB08023046EB
:102490002946121FFFF74AFF206084F8189084F83D
:1024A00017900020E061A0756075BDE8F08770B5F9
:1024B0000446407D022801D0012070BDFDF732FEA8
:1024C00005462046FFF714FF2846FDF72FFE0020A3
:1024D00070BD000005A0FFF7D9FE09A0FFF7D6FEEA
:1024E000084800F043F8FFF7E1FEF3E77368656C16
:1024F0006C2066756E6374696F6E0A0D00000000D3
:102500003D3D3E00082000200EB500220E484FF44D
:1025100000718DE80700134600F500710B4A0A2090
:10252000FFF7A0FF0A480122017EC1758A40C261FF
:102530000221417500F12C020021FFF73FFEBDE8AA
:102540000E40034800F012B8081E0020D5240008F1
:102550000820002010B5017E0122C1758A400221A9
:10256000C2614175FFF7A3FF002010BD70B504469E
:10257000FDF7D8FD0546607D032801D001280AD16A
:1025800004F12000FFF779FE0548E26901689143F4
:102590000160022060752846FDF7C8FD002070BD6F
:1025A0002400002070B512480168491C0160FFF743
:1025B000E7FD00210F4D104B0FE0012901D002294A
:1025C0000BD155F831209468203A14B1641E9462FE
:1025D00003E0D2691C6822431A60491C2029ECD30D
:1025E000012803D0BDE87040FFF760BE70BD000059
:1025F000180000205C1800202400002000000000CB
:1026000000000000010203040607080900000000A2
:102610000102030434260008000000203C000000F2
:1026200060170008702600083C0000200424000009
:10263000701700080000000000000000010000000A
:1026400010000000000000000024F4000000000062
:10265000000000000000000000000000000000007A
:10266000000000000000000000000000000000006A
:04000005080000ED02
:00000001FF
